{
  "_format": "hh-sol-artifact-1",
  "contractName": "Blog",
  "sourceName": "contracts/Blog.sol",
  "abi": [
    {
      "inputs": [
        {
          "internalType": "string",
          "name": "_name",
          "type": "string"
        }
      ],
      "stateMutability": "nonpayable",
      "type": "constructor"
    },
    {
      "anonymous": false,
      "inputs": [
        {
          "indexed": false,
          "internalType": "uint256",
          "name": "id",
          "type": "uint256"
        },
        {
          "indexed": false,
          "internalType": "string",
          "name": "title",
          "type": "string"
        },
        {
          "indexed": false,
          "internalType": "string",
          "name": "hash",
          "type": "string"
        }
      ],
      "name": "PostCreated",
      "type": "event"
    },
    {
      "anonymous": false,
      "inputs": [
        {
          "indexed": false,
          "internalType": "uint256",
          "name": "id",
          "type": "uint256"
        },
        {
          "indexed": false,
          "internalType": "string",
          "name": "title",
          "type": "string"
        },
        {
          "indexed": false,
          "internalType": "string",
          "name": "hash",
          "type": "string"
        },
        {
          "indexed": false,
          "internalType": "bool",
          "name": "published",
          "type": "bool"
        }
      ],
      "name": "PostUpdated",
      "type": "event"
    },
    {
      "inputs": [
        {
          "internalType": "string",
          "name": "title",
          "type": "string"
        },
        {
          "internalType": "string",
          "name": "hash",
          "type": "string"
        }
      ],
      "name": "createPost",
      "outputs": [],
      "stateMutability": "nonpayable",
      "type": "function"
    },
    {
      "inputs": [
        {
          "internalType": "string",
          "name": "hash",
          "type": "string"
        }
      ],
      "name": "fetchPost",
      "outputs": [
        {
          "components": [
            {
              "internalType": "uint256",
              "name": "id",
              "type": "uint256"
            },
            {
              "internalType": "string",
              "name": "title",
              "type": "string"
            },
            {
              "internalType": "string",
              "name": "content",
              "type": "string"
            },
            {
              "internalType": "bool",
              "name": "published",
              "type": "bool"
            }
          ],
          "internalType": "struct Blog.Post",
          "name": "",
          "type": "tuple"
        }
      ],
      "stateMutability": "view",
      "type": "function"
    },
    {
      "inputs": [],
      "name": "fetchPosts",
      "outputs": [
        {
          "components": [
            {
              "internalType": "uint256",
              "name": "id",
              "type": "uint256"
            },
            {
              "internalType": "string",
              "name": "title",
              "type": "string"
            },
            {
              "internalType": "string",
              "name": "content",
              "type": "string"
            },
            {
              "internalType": "bool",
              "name": "published",
              "type": "bool"
            }
          ],
          "internalType": "struct Blog.Post[]",
          "name": "",
          "type": "tuple[]"
        }
      ],
      "stateMutability": "view",
      "type": "function"
    },
    {
      "inputs": [],
      "name": "name",
      "outputs": [
        {
          "internalType": "string",
          "name": "",
          "type": "string"
        }
      ],
      "stateMutability": "view",
      "type": "function"
    },
    {
      "inputs": [],
      "name": "owner",
      "outputs": [
        {
          "internalType": "address",
          "name": "",
          "type": "address"
        }
      ],
      "stateMutability": "view",
      "type": "function"
    },
    {
      "inputs": [
        {
          "internalType": "address",
          "name": "newOwner",
          "type": "address"
        }
      ],
      "name": "transferOwnership",
      "outputs": [],
      "stateMutability": "nonpayable",
      "type": "function"
    },
    {
      "inputs": [
        {
          "internalType": "string",
          "name": "_name",
          "type": "string"
        }
      ],
      "name": "updateName",
      "outputs": [],
      "stateMutability": "nonpayable",
      "type": "function"
    },
    {
      "inputs": [
        {
          "internalType": "uint256",
          "name": "postId",
          "type": "uint256"
        },
        {
          "internalType": "string",
          "name": "title",
          "type": "string"
        },
        {
          "internalType": "string",
          "name": "hash",
          "type": "string"
        },
        {
          "internalType": "bool",
          "name": "published",
          "type": "bool"
        }
      ],
      "name": "updatePost",
      "outputs": [],
      "stateMutability": "nonpayable",
      "type": "function"
    }
  ],
  "bytecode": "0x60806040523480156200001157600080fd5b50604051620020cf380380620020cf83398181016040528101906200003791906200037b565b6200007e6040518060400160405280601981526020017f4465706c6f79696e6720426c6f672077697468206e616d653a0000000000000081525082620000d860201b60201c565b80600090816200008f919062000617565b5033600160006101000a81548173ffffffffffffffffffffffffffffffffffffffff021916908373ffffffffffffffffffffffffffffffffffffffff16021790555050620007ba565b6200017a8282604051602401620000f192919062000750565b6040516020818303038152906040527f4b5c4277000000000000000000000000000000000000000000000000000000007bffffffffffffffffffffffffffffffffffffffffffffffffffffffff19166020820180517bffffffffffffffffffffffffffffffffffffffffffffffffffffffff83818316178352505050506200017e60201b60201c565b5050565b620001a4816200019f620001a760201b62000ba817620001c860201b60201c565b60201c565b50565b60006a636f6e736f6c652e6c6f679050600080835160208501845afa505050565b620001dc60201b62000bed17819050919050565b620001e66200078b565b565b6000604051905090565b600080fd5b600080fd5b600080fd5b600080fd5b6000601f19601f8301169050919050565b7f4e487b7100000000000000000000000000000000000000000000000000000000600052604160045260246000fd5b620002518262000206565b810181811067ffffffffffffffff8211171562000273576200027262000217565b5b80604052505050565b600062000288620001e8565b905062000296828262000246565b919050565b600067ffffffffffffffff821115620002b957620002b862000217565b5b620002c48262000206565b9050602081019050919050565b60005b83811015620002f1578082015181840152602081019050620002d4565b60008484015250505050565b6000620003146200030e846200029b565b6200027c565b90508281526020810184848401111562000333576200033262000201565b5b62000340848285620002d1565b509392505050565b600082601f83011262000360576200035f620001fc565b5b815162000372848260208601620002fd565b91505092915050565b600060208284031215620003945762000393620001f2565b5b600082015167ffffffffffffffff811115620003b557620003b4620001f7565b5b620003c38482850162000348565b91505092915050565b600081519050919050565b7f4e487b7100000000000000000000000000000000000000000000000000000000600052602260045260246000fd5b600060028204905060018216806200041f57607f821691505b602082108103620004355762000434620003d7565b5b50919050565b60008190508160005260206000209050919050565b60006020601f8301049050919050565b600082821b905092915050565b6000600883026200049f7fffffffffffffffffffffffffffffffffffffffffffffffffffffffffffffffff8262000460565b620004ab868362000460565b95508019841693508086168417925050509392505050565b6000819050919050565b6000819050919050565b6000620004f8620004f2620004ec84620004c3565b620004cd565b620004c3565b9050919050565b6000819050919050565b6200051483620004d7565b6200052c6200052382620004ff565b8484546200046d565b825550505050565b600090565b6200054362000534565b6200055081848462000509565b505050565b5b8181101562000578576200056c60008262000539565b60018101905062000556565b5050565b601f821115620005c75762000591816200043b565b6200059c8462000450565b81016020851015620005ac578190505b620005c4620005bb8562000450565b83018262000555565b50505b505050565b600082821c905092915050565b6000620005ec60001984600802620005cc565b1980831691505092915050565b6000620006078383620005d9565b9150826002028217905092915050565b6200062282620003cc565b67ffffffffffffffff8111156200063e576200063d62000217565b5b6200064a825462000406565b620006578282856200057c565b600060209050601f8311600181146200068f57600084156200067a578287015190505b620006868582620005f9565b865550620006f6565b601f1984166200069f866200043b565b60005b82811015620006c957848901518255600182019150602085019450602081019050620006a2565b86831015620006e95784890151620006e5601f891682620005d9565b8355505b6001600288020188555050505b505050505050565b600082825260208201905092915050565b60006200071c82620003cc565b620007288185620006fe565b93506200073a818560208601620002d1565b620007458162000206565b840191505092915050565b600060408201905081810360008301526200076c81856200070f565b905081810360208301526200078281846200070f565b90509392505050565b7f4e487b7100000000000000000000000000000000000000000000000000000000600052605160045260246000fd5b61190580620007ca6000396000f3fe608060405234801561001057600080fd5b50600436106100885760003560e01c80638da5cb5b1161005b5780638da5cb5b14610113578063abaddd7f14610131578063cd349fe91461014f578063f2fde38b1461016b57610088565b806306fdde031461008d578063392338f5146100ab57806344828659146100c757806384da92a7146100f7575b600080fd5b610095610187565b6040516100a29190610cb1565b60405180910390f35b6100c560048036038101906100c09190610e1c565b610215565b005b6100e160048036038101906100dc9190610e94565b6103ac565b6040516100ee9190610fc5565b60405180910390f35b610111600480360381019061010c9190610e94565b61052d565b005b61011b610540565b6040516101289190611028565b60405180910390f35b610139610566565b604051610146919061116f565b60405180910390f35b610169600480360381019061016491906111e9565b610916565b005b610185600480360381019061018091906112b4565b610b0a565b005b6000805461019490611310565b80601f01602080910402602001604051908101604052809291908181526020018280546101c090611310565b801561020d5780601f106101e25761010080835404028352916020019161020d565b820191906000526020600020905b8154815290600101906020018083116101f057829003601f168201915b505050505081565b600160009054906101000a900473ffffffffffffffffffffffffffffffffffffffff1673ffffffffffffffffffffffffffffffffffffffff163373ffffffffffffffffffffffffffffffffffffffff161461026f57600080fd5b6102796002610bc9565b60006102856002610bdf565b90506000600360008381526020019081526020016000209050818160000181905550838160010190816102b891906114ed565b5060018160030160006101000a81548160ff021916908315150217905550828160020190816102e791906114ed565b50806004846040516102f991906115fb565b908152602001604051809103902060008201548160000155600182018160010190816103259190611628565b506002820181600201908161033a9190611628565b506003820160009054906101000a900460ff168160030160006101000a81548160ff0219169083151502179055509050507fe6851f0b99a9d86e5d68a97f65218980851216ce297f789c6b6b7e82ca1d90c882858560405161039e9392919061171f565b60405180910390a150505050565b6103b4610bf7565b6004826040516103c491906115fb565b9081526020016040518091039020604051806080016040529081600082015481526020016001820180546103f790611310565b80601f016020809104026020016040519081016040528092919081815260200182805461042390611310565b80156104705780601f1061044557610100808354040283529160200191610470565b820191906000526020600020905b81548152906001019060200180831161045357829003601f168201915b5050505050815260200160028201805461048990611310565b80601f01602080910402602001604051908101604052809291908181526020018280546104b590611310565b80156105025780601f106104d757610100808354040283529160200191610502565b820191906000526020600020905b8154815290600101906020018083116104e557829003601f168201915b505050505081526020016003820160009054906101000a900460ff1615151515815250509050919050565b806000908161053c91906114ed565b5050565b600160009054906101000a900473ffffffffffffffffffffffffffffffffffffffff1681565b606060006105746002610bdf565b90506000808267ffffffffffffffff81111561059357610592610cf1565b5b6040519080825280602002602001820160405280156105cc57816020015b6105b9610bf7565b8152602001906001900390816105b15790505b50905060005b8381101561090c5760006001826105e99190611793565b90506000600360008381526020019081526020016000209050806040518060800160405290816000820154815260200160018201805461062890611310565b80601f016020809104026020016040519081016040528092919081815260200182805461065490611310565b80156106a15780601f10610676576101008083540402835291602001916106a1565b820191906000526020600020905b81548152906001019060200180831161068457829003601f168201915b505050505081526020016002820180546106ba90611310565b80601f01602080910402602001604051908101604052809291908181526020018280546106e690611310565b80156107335780601f1061070857610100808354040283529160200191610733565b820191906000526020600020905b81548152906001019060200180831161071657829003601f168201915b505050505081526020016003820160009054906101000a900460ff16151515158152505084868151811061076a576107696117c7565b5b60200260200101819052506001856107829190611793565b945080604051806080016040529081600082015481526020016001820180546107aa90611310565b80601f01602080910402602001604051908101604052809291908181526020018280546107d690611310565b80156108235780601f106107f857610100808354040283529160200191610823565b820191906000526020600020905b81548152906001019060200180831161080657829003601f168201915b5050505050815260200160028201805461083c90611310565b80601f016020809104026020016040519081016040528092919081815260200182805461086890611310565b80156108b55780601f1061088a576101008083540402835291602001916108b5565b820191906000526020600020905b81548152906001019060200180831161089857829003601f168201915b505050505081526020016003820160009054906101000a900460ff1615151515815250508484815181106108ec576108eb6117c7565b5b602002602001018190525050508080610904906117f6565b9150506105d2565b5080935050505090565b600160009054906101000a900473ffffffffffffffffffffffffffffffffffffffff1673ffffffffffffffffffffffffffffffffffffffff163373ffffffffffffffffffffffffffffffffffffffff161461097057600080fd5b60006003600086815260200190815260200160002090508381600101908161099891906114ed565b50818160030160006101000a81548160ff021916908315150217905550828160020190816109c691906114ed565b50806003600087815260200190815260200160002060008201548160000155600182018160010190816109f99190611628565b5060028201816002019081610a0e9190611628565b506003820160009054906101000a900460ff168160030160006101000a81548160ff02191690831515021790555090505080600484604051610a5091906115fb565b90815260200160405180910390206000820154816000015560018201816001019081610a7c9190611628565b5060028201816002019081610a919190611628565b506003820160009054906101000a900460ff168160030160006101000a81548160ff0219169083151502179055509050507f9f8eb93fc073102bbd3072664634ab200707a4f11d94aace9cc8d0e4d019eff58160000154858585604051610afb949392919061184d565b60405180910390a15050505050565b600160009054906101000a900473ffffffffffffffffffffffffffffffffffffffff1673ffffffffffffffffffffffffffffffffffffffff163373ffffffffffffffffffffffffffffffffffffffff1614610b6457600080fd5b80600160006101000a81548173ffffffffffffffffffffffffffffffffffffffff021916908373ffffffffffffffffffffffffffffffffffffffff16021790555050565b60006a636f6e736f6c652e6c6f679050600080835160208501845afa505050565b6001816000016000828254019250508190555050565b600081600001549050919050565b610bf56118a0565b565b60405180608001604052806000815260200160608152602001606081526020016000151581525090565b600081519050919050565b600082825260208201905092915050565b60005b83811015610c5b578082015181840152602081019050610c40565b60008484015250505050565b6000601f19601f8301169050919050565b6000610c8382610c21565b610c8d8185610c2c565b9350610c9d818560208601610c3d565b610ca681610c67565b840191505092915050565b60006020820190508181036000830152610ccb8184610c78565b905092915050565b6000604051905090565b600080fd5b600080fd5b600080fd5b600080fd5b7f4e487b7100000000000000000000000000000000000000000000000000000000600052604160045260246000fd5b610d2982610c67565b810181811067ffffffffffffffff82111715610d4857610d47610cf1565b5b80604052505050565b6000610d5b610cd3565b9050610d678282610d20565b919050565b600067ffffffffffffffff821115610d8757610d86610cf1565b5b610d9082610c67565b9050602081019050919050565b82818337600083830152505050565b6000610dbf610dba84610d6c565b610d51565b905082815260208101848484011115610ddb57610dda610cec565b5b610de6848285610d9d565b509392505050565b600082601f830112610e0357610e02610ce7565b5b8135610e13848260208601610dac565b91505092915050565b60008060408385031215610e3357610e32610cdd565b5b600083013567ffffffffffffffff811115610e5157610e50610ce2565b5b610e5d85828601610dee565b925050602083013567ffffffffffffffff811115610e7e57610e7d610ce2565b5b610e8a85828601610dee565b9150509250929050565b600060208284031215610eaa57610ea9610cdd565b5b600082013567ffffffffffffffff811115610ec857610ec7610ce2565b5b610ed484828501610dee565b91505092915050565b6000819050919050565b610ef081610edd565b82525050565b600082825260208201905092915050565b6000610f1282610c21565b610f1c8185610ef6565b9350610f2c818560208601610c3d565b610f3581610c67565b840191505092915050565b60008115159050919050565b610f5581610f40565b82525050565b6000608083016000830151610f736000860182610ee7565b5060208301518482036020860152610f8b8282610f07565b91505060408301518482036040860152610fa58282610f07565b9150506060830151610fba6060860182610f4c565b508091505092915050565b60006020820190508181036000830152610fdf8184610f5b565b905092915050565b600073ffffffffffffffffffffffffffffffffffffffff82169050919050565b600061101282610fe7565b9050919050565b61102281611007565b82525050565b600060208201905061103d6000830184611019565b92915050565b600081519050919050565b600082825260208201905092915050565b6000819050602082019050919050565b60006080830160008301516110876000860182610ee7565b506020830151848203602086015261109f8282610f07565b915050604083015184820360408601526110b98282610f07565b91505060608301516110ce6060860182610f4c565b508091505092915050565b60006110e5838361106f565b905092915050565b6000602082019050919050565b600061110582611043565b61110f818561104e565b9350836020820285016111218561105f565b8060005b8581101561115d578484038952815161113e85826110d9565b9450611149836110ed565b925060208a01995050600181019050611125565b50829750879550505050505092915050565b6000602082019050818103600083015261118981846110fa565b905092915050565b61119a81610edd565b81146111a557600080fd5b50565b6000813590506111b781611191565b92915050565b6111c681610f40565b81146111d157600080fd5b50565b6000813590506111e3816111bd565b92915050565b6000806000806080858703121561120357611202610cdd565b5b6000611211878288016111a8565b945050602085013567ffffffffffffffff81111561123257611231610ce2565b5b61123e87828801610dee565b935050604085013567ffffffffffffffff81111561125f5761125e610ce2565b5b61126b87828801610dee565b925050606061127c878288016111d4565b91505092959194509250565b61129181611007565b811461129c57600080fd5b50565b6000813590506112ae81611288565b92915050565b6000602082840312156112ca576112c9610cdd565b5b60006112d88482850161129f565b91505092915050565b7f4e487b7100000000000000000000000000000000000000000000000000000000600052602260045260246000fd5b6000600282049050600182168061132857607f821691505b60208210810361133b5761133a6112e1565b5b50919050565b60008190508160005260206000209050919050565b60006020601f8301049050919050565b600082821b905092915050565b6000600883026113a37fffffffffffffffffffffffffffffffffffffffffffffffffffffffffffffffff82611366565b6113ad8683611366565b95508019841693508086168417925050509392505050565b6000819050919050565b60006113ea6113e56113e084610edd565b6113c5565b610edd565b9050919050565b6000819050919050565b611404836113cf565b611418611410826113f1565b848454611373565b825550505050565b600090565b61142d611420565b6114388184846113fb565b505050565b5b8181101561145c57611451600082611425565b60018101905061143e565b5050565b601f8211156114a15761147281611341565b61147b84611356565b8101602085101561148a578190505b61149e61149685611356565b83018261143d565b50505b505050565b600082821c905092915050565b60006114c4600019846008026114a6565b1980831691505092915050565b60006114dd83836114b3565b9150826002028217905092915050565b6114f682610c21565b67ffffffffffffffff81111561150f5761150e610cf1565b5b6115198254611310565b611524828285611460565b600060209050601f8311600181146115575760008415611545578287015190505b61154f85826114d1565b8655506115b7565b601f19841661156586611341565b60005b8281101561158d57848901518255600182019150602085019450602081019050611568565b868310156115aa57848901516115a6601f8916826114b3565b8355505b6001600288020188555050505b505050505050565b600081905092915050565b60006115d582610c21565b6115df81856115bf565b93506115ef818560208601610c3d565b80840191505092915050565b600061160782846115ca565b915081905092915050565b60008154905061162181611310565b9050919050565b81810361163657505061170e565b61163f82611612565b67ffffffffffffffff81111561165857611657610cf1565b5b6116628254611310565b61166d828285611460565b6000601f83116001811461169c576000841561168a578287015490505b61169485826114d1565b865550611707565b601f1984166116aa87611341565b96506116b586611341565b60005b828110156116dd578489015482556001820191506001850194506020810190506116b8565b868310156116fa57848901546116f6601f8916826114b3565b8355505b6001600288020188555050505b5050505050505b565b61171981610edd565b82525050565b60006060820190506117346000830186611710565b81810360208301526117468185610c78565b9050818103604083015261175a8184610c78565b9050949350505050565b7f4e487b7100000000000000000000000000000000000000000000000000000000600052601160045260246000fd5b600061179e82610edd565b91506117a983610edd565b92508282019050808211156117c1576117c0611764565b5b92915050565b7f4e487b7100000000000000000000000000000000000000000000000000000000600052603260045260246000fd5b600061180182610edd565b91507fffffffffffffffffffffffffffffffffffffffffffffffffffffffffffffffff820361183357611832611764565b5b600182019050919050565b61184781610f40565b82525050565b60006080820190506118626000830187611710565b81810360208301526118748186610c78565b905081810360408301526118888185610c78565b9050611897606083018461183e565b95945050505050565b7f4e487b7100000000000000000000000000000000000000000000000000000000600052605160045260246000fdfea26469706673582212204eaa438c1395c0e6520300c316ccee4ca8ba37d6680d6ec5e39b3c88e7c1aff764736f6c63430008140033",
  "linkReferences": {},
  "deployedLinkReferences": {}
}