{
  "_format": "hh-sol-artifact-1",
  "contractName": "Devfolio",
  "sourceName": "contracts/Devfolio.sol",
  "abi": [
    {
      "inputs": [],
      "stateMutability": "nonpayable",
      "type": "constructor"
    },
    {
      "anonymous": false,
      "inputs": [
        {
          "indexed": false,
          "internalType": "address",
          "name": "organizer",
          "type": "address"
        },
        {
          "indexed": false,
          "internalType": "uint256",
          "name": "participantCount",
          "type": "uint256"
        },
        {
          "indexed": false,
          "internalType": "uint256",
          "name": "participantLimit",
          "type": "uint256"
        },
        {
          "indexed": false,
          "internalType": "uint256",
          "name": "_amountpaid",
          "type": "uint256"
        },
        {
          "indexed": false,
          "internalType": "uint256",
          "name": "stakeAmount",
          "type": "uint256"
        },
        {
          "indexed": false,
          "internalType": "uint256",
          "name": "expiryTime",
          "type": "uint256"
        }
      ],
      "name": "HackthonCreated",
      "type": "event"
    },
    {
      "anonymous": false,
      "inputs": [
        {
          "indexed": false,
          "internalType": "address",
          "name": "organizer",
          "type": "address"
        },
        {
          "indexed": false,
          "internalType": "uint256",
          "name": "participantCount",
          "type": "uint256"
        },
        {
          "indexed": false,
          "internalType": "uint256",
          "name": "participantLimit",
          "type": "uint256"
        },
        {
          "indexed": false,
          "internalType": "uint256",
          "name": "_amountpaid",
          "type": "uint256"
        },
        {
          "indexed": false,
          "internalType": "uint256",
          "name": "stakeAmount",
          "type": "uint256"
        },
        {
          "indexed": false,
          "internalType": "uint256",
          "name": "expiryTime",
          "type": "uint256"
        }
      ],
      "name": "ParticipateHack",
      "type": "event"
    },
    {
      "anonymous": false,
      "inputs": [
        {
          "indexed": false,
          "internalType": "address",
          "name": "organizer",
          "type": "address"
        },
        {
          "indexed": false,
          "internalType": "uint256",
          "name": "participantCount",
          "type": "uint256"
        },
        {
          "indexed": false,
          "internalType": "uint256",
          "name": "participantLimit",
          "type": "uint256"
        },
        {
          "indexed": false,
          "internalType": "uint256",
          "name": "_amountpaid",
          "type": "uint256"
        },
        {
          "indexed": false,
          "internalType": "uint256",
          "name": "stakeAmount",
          "type": "uint256"
        },
        {
          "indexed": false,
          "internalType": "uint256",
          "name": "expiryTime",
          "type": "uint256"
        }
      ],
      "name": "SubmittedHack",
      "type": "event"
    },
    {
      "inputs": [
        {
          "internalType": "bytes",
          "name": "_githubUrl",
          "type": "bytes"
        },
        {
          "internalType": "uint256",
          "name": "_hackthonId",
          "type": "uint256"
        }
      ],
      "name": "MakeSubmission",
      "outputs": [],
      "stateMutability": "payable",
      "type": "function"
    },
    {
      "inputs": [],
      "name": "admin",
      "outputs": [
        {
          "internalType": "address",
          "name": "",
          "type": "address"
        }
      ],
      "stateMutability": "view",
      "type": "function"
    },
    {
      "inputs": [
        {
          "internalType": "uint256",
          "name": "_participantLimit",
          "type": "uint256"
        },
        {
          "internalType": "uint256",
          "name": "_stakeAmount",
          "type": "uint256"
        },
        {
          "internalType": "uint256",
          "name": "timeInSeconds",
          "type": "uint256"
        }
      ],
      "name": "createHackathon",
      "outputs": [],
      "stateMutability": "payable",
      "type": "function"
    },
    {
      "inputs": [],
      "name": "gitUrl",
      "outputs": [
        {
          "internalType": "bytes",
          "name": "",
          "type": "bytes"
        }
      ],
      "stateMutability": "view",
      "type": "function"
    },
    {
      "inputs": [
        {
          "internalType": "uint256",
          "name": "hackathonID",
          "type": "uint256"
        }
      ],
      "name": "partcipateInHackathon",
      "outputs": [],
      "stateMutability": "payable",
      "type": "function"
    },
    {
      "inputs": [
        {
          "internalType": "uint256",
          "name": "hackathonID",
          "type": "uint256"
        },
        {
          "internalType": "address",
          "name": "participantAddress",
          "type": "address"
        }
      ],
      "name": "returnStake",
      "outputs": [],
      "stateMutability": "payable",
      "type": "function"
    },
    {
      "inputs": [],
      "name": "withdrawHackathonFees",
      "outputs": [],
      "stateMutability": "nonpayable",
      "type": "function"
    }
  ],
  "bytecode": "0x60806040526040518060400160405280601381526020017f68747470733a2f2f6769746875622e636f6d2f00000000000000000000000000815250600490816200004a919062000328565b503480156200005857600080fd5b50336000806101000a81548173ffffffffffffffffffffffffffffffffffffffff021916908373ffffffffffffffffffffffffffffffffffffffff1602179055506000600281905550600180819055506200040f565b600081519050919050565b7f4e487b7100000000000000000000000000000000000000000000000000000000600052604160045260246000fd5b7f4e487b7100000000000000000000000000000000000000000000000000000000600052602260045260246000fd5b600060028204905060018216806200013057607f821691505b602082108103620001465762000145620000e8565b5b50919050565b60008190508160005260206000209050919050565b60006020601f8301049050919050565b600082821b905092915050565b600060088302620001b07fffffffffffffffffffffffffffffffffffffffffffffffffffffffffffffffff8262000171565b620001bc868362000171565b95508019841693508086168417925050509392505050565b6000819050919050565b6000819050919050565b60006200020962000203620001fd84620001d4565b620001de565b620001d4565b9050919050565b6000819050919050565b6200022583620001e8565b6200023d620002348262000210565b8484546200017e565b825550505050565b600090565b6200025462000245565b620002618184846200021a565b505050565b5b8181101562000289576200027d6000826200024a565b60018101905062000267565b5050565b601f821115620002d857620002a2816200014c565b620002ad8462000161565b81016020851015620002bd578190505b620002d5620002cc8562000161565b83018262000266565b50505b505050565b600082821c905092915050565b6000620002fd60001984600802620002dd565b1980831691505092915050565b6000620003188383620002ea565b9150826002028217905092915050565b6200033382620000ae565b67ffffffffffffffff8111156200034f576200034e620000b9565b5b6200035b825462000117565b620003688282856200028d565b600060209050601f831160018114620003a057600084156200038b578287015190505b6200039785826200030a565b86555062000407565b601f198416620003b0866200014c565b60005b82811015620003da57848901518255600182019150602085019450602081019050620003b3565b86831015620003fa5784890151620003f6601f891682620002ea565b8355505b6001600288020188555050505b505050505050565b6113d0806200041f6000396000f3fe6080604052600436106100705760003560e01c8063caffc5c51161004e578063caffc5c5146100d3578063efb7f91c146100ef578063f2fefa4c1461010b578063f851a4401461012757610070565b8063352ed1da146100755780638589e13c1461008c578063b374657c146100a8575b600080fd5b34801561008157600080fd5b5061008a610152565b005b6100a660048036038101906100a19190610bc8565b61028c565b005b3480156100b457600080fd5b506100bd610489565b6040516100ca9190610ca3565b60405180910390f35b6100ed60048036038101906100e89190610cc5565b610517565b005b61010960048036038101906101049190610d76565b6106de565b005b61012560048036038101906101209190610db6565b6106e2565b005b34801561013357600080fd5b5061013c610a14565b6040516101499190610df2565b60405180910390f35b60008054906101000a900473ffffffffffffffffffffffffffffffffffffffff1673ffffffffffffffffffffffffffffffffffffffff163373ffffffffffffffffffffffffffffffffffffffff16146101e0576040517f08c379a00000000000000000000000000000000000000000000000000000000081526004016101d790610e90565b60405180910390fd5b60004711610223576040517f08c379a000000000000000000000000000000000000000000000000000000000815260040161021a90610efc565b60405180910390fd5b60008054906101000a900473ffffffffffffffffffffffffffffffffffffffff1673ffffffffffffffffffffffffffffffffffffffff166108fc479081150290604051600060405180830381858888f19350505050158015610289573d6000803e3d6000fd5b50565b60006001905060005b60138110156103835760048181546102ac90610f4b565b81106102bb576102ba610f7c565b5b8154600116156102da5790600052602060002090602091828204019190065b9054901a7f0100000000000000000000000000000000000000000000000000000000000000027effffffffffffffffffffffffffffffffffffffffffffffffffffffffffffff191684828151811061033557610334610f7c565b5b602001015160f81c60f81b7effffffffffffffffffffffffffffffffffffffffffffffffffffffffffffff1916146103705760009150610383565b808061037b90610fda565b915050610295565b5060011515811515146103cb576040517f08c379a00000000000000000000000000000000000000000000000000000000081526004016103c29061106e565b60405180910390fd5b600060036000848152602001908152602001600020905060018160030160003373ffffffffffffffffffffffffffffffffffffffff1673ffffffffffffffffffffffffffffffffffffffff16815260200190815260200160002060006101000a81548160ff0219169083151502179055503373ffffffffffffffffffffffffffffffffffffffff166108fc349081150290604051600060405180830381858888f19350505050158015610482573d6000803e3d6000fd5b5050505050565b6004805461049690610f4b565b80601f01602080910402602001604051908101604052809291908181526020018280546104c290610f4b565b801561050f5780601f106104e45761010080835404028352916020019161050f565b820191906000526020600020905b8154815290600101906020018083116104f257829003601f168201915b505050505081565b60015434101561055c576040517f08c379a000000000000000000000000000000000000000000000000000000000815260040161055390611100565b60405180910390fd5b60006003600060025481526020019081526020016000209050338160000160006101000a81548173ffffffffffffffffffffffffffffffffffffffff021916908373ffffffffffffffffffffffffffffffffffffffff1602179055508381600201819055506000816001018190555082816004018190555081426105e09190611120565b8160050181905550600260008154809291906105fb90610fda565b919050555060008054906101000a900473ffffffffffffffffffffffffffffffffffffffff1673ffffffffffffffffffffffffffffffffffffffff166108fc349081150290604051600060405180830381858888f19350505050158015610666573d6000803e3d6000fd5b507fae7fe8eaa084e3f95d0d87820eed3beb83ceee6c0998e38edc0936dba14735498160000160009054906101000a900473ffffffffffffffffffffffffffffffffffffffff1682600101543484600201548786600501546040516106d096959493929190611163565b60405180910390a150505050565b5050565b80600073ffffffffffffffffffffffffffffffffffffffff166003600083815260200190815260200160002060000160009054906101000a900473ffffffffffffffffffffffffffffffffffffffff1673ffffffffffffffffffffffffffffffffffffffff1603610788576040517f08c379a000000000000000000000000000000000000000000000000000000000815260040161077f90611210565b60405180910390fd5b600360008281526020019081526020016000206005015442106107e0576040517f08c379a00000000000000000000000000000000000000000000000000000000081526004016107d79061127c565b60405180910390fd5b6003600083815260200190815260200160002060040154341015610839576040517f08c379a0000000000000000000000000000000000000000000000000000000008152600401610830906112e8565b60405180910390fd5b600060036000848152602001908152602001600020905080600201548160010154111561089b576040517f08c379a00000000000000000000000000000000000000000000000000000000081526004016108929061137a565b60405180910390fd5b60006003600085815260200190815260200160002060030160003373ffffffffffffffffffffffffffffffffffffffff1673ffffffffffffffffffffffffffffffffffffffff16815260200190815260200160002060006101000a81548160ff02191690831515021790555060036000848152602001908152602001600020600101600081548092919061092e90610fda565b919050555060008054906101000a900473ffffffffffffffffffffffffffffffffffffffff1673ffffffffffffffffffffffffffffffffffffffff166108fc349081150290604051600060405180830381858888f19350505050158015610999573d6000803e3d6000fd5b507f0597891c75f89dc05a01ac12b5bb00b2d50545d10b6c341d158d8e9ca7de19ca8160000160009054906101000a900473ffffffffffffffffffffffffffffffffffffffff16826001015434846002015485600401548660050154604051610a0796959493929190611163565b60405180910390a1505050565b60008054906101000a900473ffffffffffffffffffffffffffffffffffffffff1681565b6000604051905090565b600080fd5b600080fd5b600080fd5b600080fd5b6000601f19601f8301169050919050565b7f4e487b7100000000000000000000000000000000000000000000000000000000600052604160045260246000fd5b610a9f82610a56565b810181811067ffffffffffffffff82111715610abe57610abd610a67565b5b80604052505050565b6000610ad1610a38565b9050610add8282610a96565b919050565b600067ffffffffffffffff821115610afd57610afc610a67565b5b610b0682610a56565b9050602081019050919050565b82818337600083830152505050565b6000610b35610b3084610ae2565b610ac7565b905082815260208101848484011115610b5157610b50610a51565b5b610b5c848285610b13565b509392505050565b600082601f830112610b7957610b78610a4c565b5b8135610b89848260208601610b22565b91505092915050565b6000819050919050565b610ba581610b92565b8114610bb057600080fd5b50565b600081359050610bc281610b9c565b92915050565b60008060408385031215610bdf57610bde610a42565b5b600083013567ffffffffffffffff811115610bfd57610bfc610a47565b5b610c0985828601610b64565b9250506020610c1a85828601610bb3565b9150509250929050565b600081519050919050565b600082825260208201905092915050565b60005b83811015610c5e578082015181840152602081019050610c43565b60008484015250505050565b6000610c7582610c24565b610c7f8185610c2f565b9350610c8f818560208601610c40565b610c9881610a56565b840191505092915050565b60006020820190508181036000830152610cbd8184610c6a565b905092915050565b600080600060608486031215610cde57610cdd610a42565b5b6000610cec86828701610bb3565b9350506020610cfd86828701610bb3565b9250506040610d0e86828701610bb3565b9150509250925092565b600073ffffffffffffffffffffffffffffffffffffffff82169050919050565b6000610d4382610d18565b9050919050565b610d5381610d38565b8114610d5e57600080fd5b50565b600081359050610d7081610d4a565b92915050565b60008060408385031215610d8d57610d8c610a42565b5b6000610d9b85828601610bb3565b9250506020610dac85828601610d61565b9150509250929050565b600060208284031215610dcc57610dcb610a42565b5b6000610dda84828501610bb3565b91505092915050565b610dec81610d38565b82525050565b6000602082019050610e076000830184610de3565b92915050565b600082825260208201905092915050565b7f7769746864726177696e67206861636b6174686f6e20666565732063616e206f60008201527f6e6c7920626520646f6e652062792061646d696e000000000000000000000000602082015250565b6000610e7a603483610e0d565b9150610e8582610e1e565b604082019050919050565b60006020820190508181036000830152610ea981610e6d565b9050919050565b7f4e6f2062616c616e636520746f207472616e7366657200000000000000000000600082015250565b6000610ee6601683610e0d565b9150610ef182610eb0565b602082019050919050565b60006020820190508181036000830152610f1581610ed9565b9050919050565b7f4e487b7100000000000000000000000000000000000000000000000000000000600052602260045260246000fd5b60006002820490506001821680610f6357607f821691505b602082108103610f7657610f75610f1c565b5b50919050565b7f4e487b7100000000000000000000000000000000000000000000000000000000600052603260045260246000fd5b7f4e487b7100000000000000000000000000000000000000000000000000000000600052601160045260246000fd5b6000610fe582610b92565b91507fffffffffffffffffffffffffffffffffffffffffffffffffffffffffffffffff820361101757611016610fab565b5b600182019050919050565b7f6e6f742076616c6964206769742075726c000000000000000000000000000000600082015250565b6000611058601183610e0d565b915061106382611022565b602082019050919050565b600060208201905081810360008301526110878161104b565b9050919050565b7f496e73756666696369656e7420616d6f756e7420746f2063726561746520686160008201527f636b6174686f6e00000000000000000000000000000000000000000000000000602082015250565b60006110ea602783610e0d565b91506110f58261108e565b604082019050919050565b60006020820190508181036000830152611119816110dd565b9050919050565b600061112b82610b92565b915061113683610b92565b925082820190508082111561114e5761114d610fab565b5b92915050565b61115d81610b92565b82525050565b600060c0820190506111786000830189610de3565b6111856020830188611154565b6111926040830187611154565b61119f6060830186611154565b6111ac6080830185611154565b6111b960a0830184611154565b979650505050505050565b7f4861636b6174686f6e20646f6573206e6f742065786973740000000000000000600082015250565b60006111fa601883610e0d565b9150611205826111c4565b602082019050919050565b60006020820190508181036000830152611229816111ed565b9050919050565b7f4861636b6174686f6e20697320616c7265616479206f76657200000000000000600082015250565b6000611266601983610e0d565b915061127182611230565b602082019050919050565b6000602082019050818103600083015261129581611259565b9050919050565b7f696e73756666696369656e74207374616b6520616d6f756e7400000000000000600082015250565b60006112d2601983610e0d565b91506112dd8261129c565b602082019050919050565b60006020820190508181036000830152611301816112c5565b9050919050565b7f7061727469636970616e74206c696d697420726561636865642c2063616e6e6f60008201527f7420726567697374657221210000000000000000000000000000000000000000602082015250565b6000611364602c83610e0d565b915061136f82611308565b604082019050919050565b6000602082019050818103600083015261139381611357565b905091905056fea2646970667358221220dfc48b1848d8d5fbc87953e99a11755c20bcb2e0528f1bad3e8c326bbc4c4cd164736f6c63430008140033",
  "linkReferences": {},
  "deployedLinkReferences": {}
}