{
  "_format": "hh-sol-artifact-1",
  "contractName": "Devfolio",
  "sourceName": "contracts/Devfolio.sol",
  "abi": [
    {
      "inputs": [],
      "stateMutability": "nonpayable",
      "type": "constructor"
    },
    {
      "anonymous": false,
      "inputs": [
        {
          "indexed": false,
          "internalType": "uint256",
          "name": "hackId",
          "type": "uint256"
        },
        {
          "indexed": false,
          "internalType": "address",
          "name": "organizer",
          "type": "address"
        },
        {
          "indexed": false,
          "internalType": "uint256",
          "name": "participantCount",
          "type": "uint256"
        },
        {
          "indexed": false,
          "internalType": "uint256",
          "name": "participantLimit",
          "type": "uint256"
        },
        {
          "indexed": false,
          "internalType": "uint256",
          "name": "_amountpaid",
          "type": "uint256"
        },
        {
          "indexed": false,
          "internalType": "uint256",
          "name": "stakeAmount",
          "type": "uint256"
        },
        {
          "indexed": false,
          "internalType": "uint256",
          "name": "expiryTime",
          "type": "uint256"
        }
      ],
      "name": "HackthonCreated",
      "type": "event"
    },
    {
      "anonymous": false,
      "inputs": [
        {
          "indexed": false,
          "internalType": "uint256",
          "name": "hackId",
          "type": "uint256"
        },
        {
          "indexed": false,
          "internalType": "address",
          "name": "organizer",
          "type": "address"
        },
        {
          "indexed": false,
          "internalType": "uint256",
          "name": "participantCount",
          "type": "uint256"
        },
        {
          "indexed": false,
          "internalType": "uint256",
          "name": "participantLimit",
          "type": "uint256"
        },
        {
          "indexed": false,
          "internalType": "uint256",
          "name": "_amountpaid",
          "type": "uint256"
        },
        {
          "indexed": false,
          "internalType": "uint256",
          "name": "stakeAmount",
          "type": "uint256"
        },
        {
          "indexed": false,
          "internalType": "uint256",
          "name": "expiryTime",
          "type": "uint256"
        }
      ],
      "name": "ParticipateHack",
      "type": "event"
    },
    {
      "anonymous": false,
      "inputs": [
        {
          "indexed": false,
          "internalType": "address",
          "name": "organizer",
          "type": "address"
        },
        {
          "indexed": true,
          "internalType": "address",
          "name": "nftContract",
          "type": "address"
        },
        {
          "indexed": true,
          "internalType": "uint256",
          "name": "tokenId",
          "type": "uint256"
        },
        {
          "indexed": false,
          "internalType": "address",
          "name": "participant",
          "type": "address"
        }
      ],
      "name": "RevardGiven",
      "type": "event"
    },
    {
      "anonymous": false,
      "inputs": [
        {
          "indexed": false,
          "internalType": "uint256",
          "name": "hackId",
          "type": "uint256"
        },
        {
          "indexed": false,
          "internalType": "address",
          "name": "organizer",
          "type": "address"
        },
        {
          "indexed": false,
          "internalType": "bytes",
          "name": "giturl",
          "type": "bytes"
        }
      ],
      "name": "SubmittedHack",
      "type": "event"
    },
    {
      "inputs": [
        {
          "internalType": "bytes",
          "name": "_githubUrl",
          "type": "bytes"
        },
        {
          "internalType": "uint256",
          "name": "_hackthonId",
          "type": "uint256"
        }
      ],
      "name": "MakeSubmission",
      "outputs": [],
      "stateMutability": "payable",
      "type": "function"
    },
    {
      "inputs": [],
      "name": "admin",
      "outputs": [
        {
          "internalType": "address",
          "name": "",
          "type": "address"
        }
      ],
      "stateMutability": "view",
      "type": "function"
    },
    {
      "inputs": [
        {
          "internalType": "uint256",
          "name": "_participantLimit",
          "type": "uint256"
        },
        {
          "internalType": "uint256",
          "name": "_stakeAmount",
          "type": "uint256"
        },
        {
          "internalType": "uint256",
          "name": "timeInSeconds",
          "type": "uint256"
        }
      ],
      "name": "createHackathon",
      "outputs": [],
      "stateMutability": "payable",
      "type": "function"
    },
    {
      "inputs": [],
      "name": "gitUrl",
      "outputs": [
        {
          "internalType": "bytes",
          "name": "",
          "type": "bytes"
        }
      ],
      "stateMutability": "view",
      "type": "function"
    },
    {
      "inputs": [
        {
          "internalType": "address",
          "name": "nftContract",
          "type": "address"
        },
        {
          "internalType": "uint256",
          "name": "tokenId",
          "type": "uint256"
        },
        {
          "internalType": "uint256",
          "name": "price",
          "type": "uint256"
        },
        {
          "internalType": "address",
          "name": "receiver",
          "type": "address"
        }
      ],
      "name": "giveawayCertificate",
      "outputs": [],
      "stateMutability": "payable",
      "type": "function"
    },
    {
      "inputs": [
        {
          "internalType": "uint256",
          "name": "hackathonID",
          "type": "uint256"
        }
      ],
      "name": "partcipateInHackathon",
      "outputs": [],
      "stateMutability": "payable",
      "type": "function"
    },
    {
      "inputs": [
        {
          "internalType": "uint256",
          "name": "hackathonID",
          "type": "uint256"
        },
        {
          "internalType": "address",
          "name": "participantAddress",
          "type": "address"
        }
      ],
      "name": "returnStake",
      "outputs": [],
      "stateMutability": "payable",
      "type": "function"
    },
    {
      "inputs": [],
      "name": "withdrawHackathonFees",
      "outputs": [],
      "stateMutability": "nonpayable",
      "type": "function"
    }
  ],
  "bytecode": "0x60806040526040518060400160405280601381526020017f68747470733a2f2f6769746875622e636f6d2f00000000000000000000000000815250600490816200004a919062000328565b503480156200005857600080fd5b50336000806101000a81548173ffffffffffffffffffffffffffffffffffffffff021916908373ffffffffffffffffffffffffffffffffffffffff1602179055506000600281905550600180819055506200040f565b600081519050919050565b7f4e487b7100000000000000000000000000000000000000000000000000000000600052604160045260246000fd5b7f4e487b7100000000000000000000000000000000000000000000000000000000600052602260045260246000fd5b600060028204905060018216806200013057607f821691505b602082108103620001465762000145620000e8565b5b50919050565b60008190508160005260206000209050919050565b60006020601f8301049050919050565b600082821b905092915050565b600060088302620001b07fffffffffffffffffffffffffffffffffffffffffffffffffffffffffffffffff8262000171565b620001bc868362000171565b95508019841693508086168417925050509392505050565b6000819050919050565b6000819050919050565b60006200020962000203620001fd84620001d4565b620001de565b620001d4565b9050919050565b6000819050919050565b6200022583620001e8565b6200023d620002348262000210565b8484546200017e565b825550505050565b600090565b6200025462000245565b620002618184846200021a565b505050565b5b8181101562000289576200027d6000826200024a565b60018101905062000267565b5050565b601f821115620002d857620002a2816200014c565b620002ad8462000161565b81016020851015620002bd578190505b620002d5620002cc8562000161565b83018262000266565b50505b505050565b600082821c905092915050565b6000620002fd60001984600802620002dd565b1980831691505092915050565b6000620003188383620002ea565b9150826002028217905092915050565b6200033382620000ae565b67ffffffffffffffff8111156200034f576200034e620000b9565b5b6200035b825462000117565b620003688282856200028d565b600060209050601f831160018114620003a057600084156200038b578287015190505b6200039785826200030a565b86555062000407565b601f198416620003b0866200014c565b60005b82811015620003da57848901518255600182019150602085019450602081019050620003b3565b86831015620003fa5784890151620003f6601f891682620002ea565b8355505b6001600288020188555050505b505050505050565b611793806200041f6000396000f3fe60806040526004361061007b5760003560e01c8063caffc5c51161004e578063caffc5c5146100fa578063efb7f91c14610116578063f2fefa4c14610132578063f851a4401461014e5761007b565b80632f088b6414610080578063352ed1da1461009c5780638589e13c146100b3578063b374657c146100cf575b600080fd5b61009a60048036038101906100959190610cf0565b610179565b005b3480156100a857600080fd5b506100b16102f1565b005b6100cd60048036038101906100c89190610e9d565b61042b565b005b3480156100db57600080fd5b506100e4610687565b6040516100f19190610f78565b60405180910390f35b610114600480360381019061010f9190610f9a565b610715565b005b610130600480360381019061012b9190610fed565b6108ec565b005b61014c6004803603810190610147919061102d565b6108f0565b005b34801561015a57600080fd5b50610163610c24565b6040516101709190611069565b60405180910390f35b600082116101bc576040517f08c379a00000000000000000000000000000000000000000000000000000000081526004016101b3906110e1565b60405180910390fd5b8373ffffffffffffffffffffffffffffffffffffffff166323b872dd3330866040518463ffffffff1660e01b81526004016101f993929190611110565b600060405180830381600087803b15801561021357600080fd5b505af1158015610227573d6000803e3d6000fd5b505050508373ffffffffffffffffffffffffffffffffffffffff166323b872dd3033866040518463ffffffff1660e01b815260040161026893929190611110565b600060405180830381600087803b15801561028257600080fd5b505af1158015610296573d6000803e3d6000fd5b50505050828473ffffffffffffffffffffffffffffffffffffffff167f4923af71367dfe61e14945044113c98a082fcbd796c4b7883c510400367c770133846040516102e3929190611147565b60405180910390a350505050565b60008054906101000a900473ffffffffffffffffffffffffffffffffffffffff1673ffffffffffffffffffffffffffffffffffffffff163373ffffffffffffffffffffffffffffffffffffffff161461037f576040517f08c379a0000000000000000000000000000000000000000000000000000000008152600401610376906111e2565b60405180910390fd5b600047116103c2576040517f08c379a00000000000000000000000000000000000000000000000000000000081526004016103b99061124e565b60405180910390fd5b60008054906101000a900473ffffffffffffffffffffffffffffffffffffffff1673ffffffffffffffffffffffffffffffffffffffff166108fc479081150290604051600060405180830381858888f19350505050158015610428573d6000803e3d6000fd5b50565b60006001905060005b601381101561052257600481815461044b9061129d565b811061045a576104596112ce565b5b8154600116156104795790600052602060002090602091828204019190065b9054901a7f0100000000000000000000000000000000000000000000000000000000000000027effffffffffffffffffffffffffffffffffffffffffffffffffffffffffffff19168482815181106104d4576104d36112ce565b5b602001015160f81c60f81b7effffffffffffffffffffffffffffffffffffffffffffffffffffffffffffff19161461050f5760009150610522565b808061051a9061132c565b915050610434565b50600115158115151461056a576040517f08c379a0000000000000000000000000000000000000000000000000000000008152600401610561906113c0565b60405180910390fd5b600060036000848152602001908152602001600020905060018160030160003373ffffffffffffffffffffffffffffffffffffffff1673ffffffffffffffffffffffffffffffffffffffff16815260200190815260200160002060006101000a81548160ff0219169083151502179055503373ffffffffffffffffffffffffffffffffffffffff166108fc349081150290604051600060405180830381858888f19350505050158015610621573d6000803e3d6000fd5b507fd972da02d4ee94796ac35bbd75f5377b9674cd82f73a8216a7d2f4e7cc1c8cca838260000160009054906101000a900473ffffffffffffffffffffffffffffffffffffffff1686604051610679939291906113e0565b60405180910390a150505050565b600480546106949061129d565b80601f01602080910402602001604051908101604052809291908181526020018280546106c09061129d565b801561070d5780601f106106e25761010080835404028352916020019161070d565b820191906000526020600020905b8154815290600101906020018083116106f057829003601f168201915b505050505081565b60015434101561075a576040517f08c379a000000000000000000000000000000000000000000000000000000000815260040161075190611490565b60405180910390fd5b60006003600060025481526020019081526020016000209050338160000160006101000a81548173ffffffffffffffffffffffffffffffffffffffff021916908373ffffffffffffffffffffffffffffffffffffffff1602179055508381600201819055506000816001018190555082816004018190555081426107de91906114b0565b8160050181905550600260008154809291906107f99061132c565b919050555060008054906101000a900473ffffffffffffffffffffffffffffffffffffffff1673ffffffffffffffffffffffffffffffffffffffff166108fc349081150290604051600060405180830381858888f19350505050158015610864573d6000803e3d6000fd5b507f426a92c1c8a0f788c4f454c73c62d18939ceb5b6b208ada71f9cf46759629894600160025461089591906114e4565b8260000160009054906101000a900473ffffffffffffffffffffffffffffffffffffffff1683600101543485600201548887600501546040516108de9796959493929190611518565b60405180910390a150505050565b5050565b80600073ffffffffffffffffffffffffffffffffffffffff166003600083815260200190815260200160002060000160009054906101000a900473ffffffffffffffffffffffffffffffffffffffff1673ffffffffffffffffffffffffffffffffffffffff1603610996576040517f08c379a000000000000000000000000000000000000000000000000000000000815260040161098d906115d3565b60405180910390fd5b600360008281526020019081526020016000206005015442106109ee576040517f08c379a00000000000000000000000000000000000000000000000000000000081526004016109e59061163f565b60405180910390fd5b6003600083815260200190815260200160002060040154341015610a47576040517f08c379a0000000000000000000000000000000000000000000000000000000008152600401610a3e906116ab565b60405180910390fd5b6000600360008481526020019081526020016000209050806002015481600101541115610aa9576040517f08c379a0000000000000000000000000000000000000000000000000000000008152600401610aa09061173d565b60405180910390fd5b60006003600085815260200190815260200160002060030160003373ffffffffffffffffffffffffffffffffffffffff1673ffffffffffffffffffffffffffffffffffffffff16815260200190815260200160002060006101000a81548160ff021916908315150217905550600360008481526020019081526020016000206001016000815480929190610b3c9061132c565b919050555060008054906101000a900473ffffffffffffffffffffffffffffffffffffffff1673ffffffffffffffffffffffffffffffffffffffff166108fc349081150290604051600060405180830381858888f19350505050158015610ba7573d6000803e3d6000fd5b507fd16c180798767a6bef7942b6c03ba57b44f04ab937f691bad93d54be038005e4838260000160009054906101000a900473ffffffffffffffffffffffffffffffffffffffff16836001015434856002015486600401548760050154604051610c179796959493929190611518565b60405180910390a1505050565b60008054906101000a900473ffffffffffffffffffffffffffffffffffffffff1681565b6000604051905090565b600080fd5b600080fd5b600073ffffffffffffffffffffffffffffffffffffffff82169050919050565b6000610c8782610c5c565b9050919050565b610c9781610c7c565b8114610ca257600080fd5b50565b600081359050610cb481610c8e565b92915050565b6000819050919050565b610ccd81610cba565b8114610cd857600080fd5b50565b600081359050610cea81610cc4565b92915050565b60008060008060808587031215610d0a57610d09610c52565b5b6000610d1887828801610ca5565b9450506020610d2987828801610cdb565b9350506040610d3a87828801610cdb565b9250506060610d4b87828801610ca5565b91505092959194509250565b600080fd5b600080fd5b6000601f19601f8301169050919050565b7f4e487b7100000000000000000000000000000000000000000000000000000000600052604160045260246000fd5b610daa82610d61565b810181811067ffffffffffffffff82111715610dc957610dc8610d72565b5b80604052505050565b6000610ddc610c48565b9050610de88282610da1565b919050565b600067ffffffffffffffff821115610e0857610e07610d72565b5b610e1182610d61565b9050602081019050919050565b82818337600083830152505050565b6000610e40610e3b84610ded565b610dd2565b905082815260208101848484011115610e5c57610e5b610d5c565b5b610e67848285610e1e565b509392505050565b600082601f830112610e8457610e83610d57565b5b8135610e94848260208601610e2d565b91505092915050565b60008060408385031215610eb457610eb3610c52565b5b600083013567ffffffffffffffff811115610ed257610ed1610c57565b5b610ede85828601610e6f565b9250506020610eef85828601610cdb565b9150509250929050565b600081519050919050565b600082825260208201905092915050565b60005b83811015610f33578082015181840152602081019050610f18565b60008484015250505050565b6000610f4a82610ef9565b610f548185610f04565b9350610f64818560208601610f15565b610f6d81610d61565b840191505092915050565b60006020820190508181036000830152610f928184610f3f565b905092915050565b600080600060608486031215610fb357610fb2610c52565b5b6000610fc186828701610cdb565b9350506020610fd286828701610cdb565b9250506040610fe386828701610cdb565b9150509250925092565b6000806040838503121561100457611003610c52565b5b600061101285828601610cdb565b925050602061102385828601610ca5565b9150509250929050565b60006020828403121561104357611042610c52565b5b600061105184828501610cdb565b91505092915050565b61106381610c7c565b82525050565b600060208201905061107e600083018461105a565b92915050565b600082825260208201905092915050565b7f5072696365206d757374206265206174206c6561737420312077656900000000600082015250565b60006110cb601c83611084565b91506110d682611095565b602082019050919050565b600060208201905081810360008301526110fa816110be565b9050919050565b61110a81610cba565b82525050565b6000606082019050611125600083018661105a565b611132602083018561105a565b61113f6040830184611101565b949350505050565b600060408201905061115c600083018561105a565b611169602083018461105a565b9392505050565b7f7769746864726177696e67206861636b6174686f6e20666565732063616e206f60008201527f6e6c7920626520646f6e652062792061646d696e000000000000000000000000602082015250565b60006111cc603483611084565b91506111d782611170565b604082019050919050565b600060208201905081810360008301526111fb816111bf565b9050919050565b7f4e6f2062616c616e636520746f207472616e7366657200000000000000000000600082015250565b6000611238601683611084565b915061124382611202565b602082019050919050565b600060208201905081810360008301526112678161122b565b9050919050565b7f4e487b7100000000000000000000000000000000000000000000000000000000600052602260045260246000fd5b600060028204905060018216806112b557607f821691505b6020821081036112c8576112c761126e565b5b50919050565b7f4e487b7100000000000000000000000000000000000000000000000000000000600052603260045260246000fd5b7f4e487b7100000000000000000000000000000000000000000000000000000000600052601160045260246000fd5b600061133782610cba565b91507fffffffffffffffffffffffffffffffffffffffffffffffffffffffffffffffff8203611369576113686112fd565b5b600182019050919050565b7f6e6f742076616c6964206769742075726c000000000000000000000000000000600082015250565b60006113aa601183611084565b91506113b582611374565b602082019050919050565b600060208201905081810360008301526113d98161139d565b9050919050565b60006060820190506113f56000830186611101565b611402602083018561105a565b81810360408301526114148184610f3f565b9050949350505050565b7f496e73756666696369656e7420616d6f756e7420746f2063726561746520686160008201527f636b6174686f6e00000000000000000000000000000000000000000000000000602082015250565b600061147a602783611084565b91506114858261141e565b604082019050919050565b600060208201905081810360008301526114a98161146d565b9050919050565b60006114bb82610cba565b91506114c683610cba565b92508282019050808211156114de576114dd6112fd565b5b92915050565b60006114ef82610cba565b91506114fa83610cba565b9250828203905081811115611512576115116112fd565b5b92915050565b600060e08201905061152d600083018a611101565b61153a602083018961105a565b6115476040830188611101565b6115546060830187611101565b6115616080830186611101565b61156e60a0830185611101565b61157b60c0830184611101565b98975050505050505050565b7f4861636b6174686f6e20646f6573206e6f742065786973740000000000000000600082015250565b60006115bd601883611084565b91506115c882611587565b602082019050919050565b600060208201905081810360008301526115ec816115b0565b9050919050565b7f4861636b6174686f6e20697320616c7265616479206f76657200000000000000600082015250565b6000611629601983611084565b9150611634826115f3565b602082019050919050565b600060208201905081810360008301526116588161161c565b9050919050565b7f696e73756666696369656e74207374616b6520616d6f756e7400000000000000600082015250565b6000611695601983611084565b91506116a08261165f565b602082019050919050565b600060208201905081810360008301526116c481611688565b9050919050565b7f7061727469636970616e74206c696d697420726561636865642c2063616e6e6f60008201527f7420726567697374657221210000000000000000000000000000000000000000602082015250565b6000611727602c83611084565b9150611732826116cb565b604082019050919050565b600060208201905081810360008301526117568161171a565b905091905056fea26469706673582212208518b4d57886ed2303797b9fb9f61ff88ec624e499940e91cc271f545723c11364736f6c63430008140033",
  "linkReferences": {},
  "deployedLinkReferences": {}
}