{
  "_format": "hh-sol-artifact-1",
  "contractName": "Devfolio",
  "sourceName": "contracts/Devfolio.sol",
  "abi": [
    {
      "inputs": [],
      "stateMutability": "nonpayable",
      "type": "constructor"
    },
    {
      "anonymous": false,
      "inputs": [
        {
          "indexed": false,
          "internalType": "uint256",
          "name": "hackId",
          "type": "uint256"
        },
        {
          "indexed": false,
          "internalType": "address",
          "name": "organizer",
          "type": "address"
        },
        {
          "indexed": false,
          "internalType": "uint256",
          "name": "participantCount",
          "type": "uint256"
        },
        {
          "indexed": false,
          "internalType": "uint256",
          "name": "participantLimit",
          "type": "uint256"
        },
        {
          "indexed": false,
          "internalType": "uint256",
          "name": "_amountpaid",
          "type": "uint256"
        },
        {
          "indexed": false,
          "internalType": "uint256",
          "name": "stakeAmount",
          "type": "uint256"
        },
        {
          "indexed": false,
          "internalType": "uint256",
          "name": "expiryTime",
          "type": "uint256"
        }
      ],
      "name": "HackthonCreated",
      "type": "event"
    },
    {
      "anonymous": false,
      "inputs": [
        {
          "indexed": false,
          "internalType": "uint256",
          "name": "hackId",
          "type": "uint256"
        },
        {
          "indexed": false,
          "internalType": "address",
          "name": "organizer",
          "type": "address"
        },
        {
          "indexed": false,
          "internalType": "address",
          "name": "partcipant",
          "type": "address"
        },
        {
          "indexed": false,
          "internalType": "uint256",
          "name": "money",
          "type": "uint256"
        }
      ],
      "name": "ParticipateHack",
      "type": "event"
    },
    {
      "anonymous": false,
      "inputs": [
        {
          "indexed": false,
          "internalType": "address",
          "name": "organizer",
          "type": "address"
        },
        {
          "indexed": true,
          "internalType": "address",
          "name": "nftContract",
          "type": "address"
        },
        {
          "indexed": true,
          "internalType": "uint256",
          "name": "tokenId",
          "type": "uint256"
        },
        {
          "indexed": false,
          "internalType": "address",
          "name": "participant",
          "type": "address"
        }
      ],
      "name": "RevardGiven",
      "type": "event"
    },
    {
      "anonymous": false,
      "inputs": [
        {
          "indexed": false,
          "internalType": "uint256",
          "name": "hackId",
          "type": "uint256"
        },
        {
          "indexed": false,
          "internalType": "address",
          "name": "organizer",
          "type": "address"
        },
        {
          "indexed": false,
          "internalType": "string",
          "name": "giturl",
          "type": "string"
        }
      ],
      "name": "SubmittedHack",
      "type": "event"
    },
    {
      "inputs": [
        {
          "internalType": "string",
          "name": "_githubUrl",
          "type": "string"
        },
        {
          "internalType": "uint256",
          "name": "_hackthonId",
          "type": "uint256"
        }
      ],
      "name": "MakeSubmission",
      "outputs": [],
      "stateMutability": "payable",
      "type": "function"
    },
    {
      "inputs": [],
      "name": "admin",
      "outputs": [
        {
          "internalType": "address",
          "name": "",
          "type": "address"
        }
      ],
      "stateMutability": "view",
      "type": "function"
    },
    {
      "inputs": [
        {
          "internalType": "string",
          "name": "_name",
          "type": "string"
        },
        {
          "internalType": "uint256",
          "name": "_participantLimit",
          "type": "uint256"
        },
        {
          "internalType": "uint256",
          "name": "_stakeAmount",
          "type": "uint256"
        },
        {
          "internalType": "uint256",
          "name": "timeInSeconds",
          "type": "uint256"
        }
      ],
      "name": "createHackathon",
      "outputs": [],
      "stateMutability": "payable",
      "type": "function"
    },
    {
      "inputs": [],
      "name": "gitUrl",
      "outputs": [
        {
          "internalType": "bytes",
          "name": "",
          "type": "bytes"
        }
      ],
      "stateMutability": "view",
      "type": "function"
    },
    {
      "inputs": [
        {
          "internalType": "address",
          "name": "nftContract",
          "type": "address"
        },
        {
          "internalType": "uint256",
          "name": "tokenId",
          "type": "uint256"
        },
        {
          "internalType": "uint256",
          "name": "price",
          "type": "uint256"
        },
        {
          "internalType": "address",
          "name": "receiver",
          "type": "address"
        }
      ],
      "name": "giveawayCertificate",
      "outputs": [],
      "stateMutability": "payable",
      "type": "function"
    },
    {
      "inputs": [
        {
          "internalType": "uint256",
          "name": "hackathonID",
          "type": "uint256"
        }
      ],
      "name": "partcipateInHackathon",
      "outputs": [],
      "stateMutability": "payable",
      "type": "function"
    },
    {
      "inputs": [
        {
          "internalType": "uint256",
          "name": "hackathonID",
          "type": "uint256"
        },
        {
          "internalType": "address",
          "name": "participantAddress",
          "type": "address"
        }
      ],
      "name": "returnStake",
      "outputs": [],
      "stateMutability": "payable",
      "type": "function"
    },
    {
      "inputs": [],
      "name": "withdrawHackathonFees",
      "outputs": [],
      "stateMutability": "nonpayable",
      "type": "function"
    }
  ],
  "bytecode": "0x60806040526040518060400160405280601381526020017f68747470733a2f2f6769746875622e636f6d2f00000000000000000000000000815250600490816200004a919062000328565b503480156200005857600080fd5b50336000806101000a81548173ffffffffffffffffffffffffffffffffffffffff021916908373ffffffffffffffffffffffffffffffffffffffff1602179055506000600281905550600180819055506200040f565b600081519050919050565b7f4e487b7100000000000000000000000000000000000000000000000000000000600052604160045260246000fd5b7f4e487b7100000000000000000000000000000000000000000000000000000000600052602260045260246000fd5b600060028204905060018216806200013057607f821691505b602082108103620001465762000145620000e8565b5b50919050565b60008190508160005260206000209050919050565b60006020601f8301049050919050565b600082821b905092915050565b600060088302620001b07fffffffffffffffffffffffffffffffffffffffffffffffffffffffffffffffff8262000171565b620001bc868362000171565b95508019841693508086168417925050509392505050565b6000819050919050565b6000819050919050565b60006200020962000203620001fd84620001d4565b620001de565b620001d4565b9050919050565b6000819050919050565b6200022583620001e8565b6200023d620002348262000210565b8484546200017e565b825550505050565b600090565b6200025462000245565b620002618184846200021a565b505050565b5b8181101562000289576200027d6000826200024a565b60018101905062000267565b5050565b601f821115620002d857620002a2816200014c565b620002ad8462000161565b81016020851015620002bd578190505b620002d5620002cc8562000161565b83018262000266565b50505b505050565b600082821c905092915050565b6000620002fd60001984600802620002dd565b1980831691505092915050565b6000620003188383620002ea565b9150826002028217905092915050565b6200033382620000ae565b67ffffffffffffffff8111156200034f576200034e620000b9565b5b6200035b825462000117565b620003688282856200028d565b600060209050601f831160018114620003a057600084156200038b578287015190505b6200039785826200030a565b86555062000407565b601f198416620003b0866200014c565b60005b82811015620003da57848901518255600182019150602085019450602081019050620003b3565b86831015620003fa5784890151620003f6601f891682620002ea565b8355505b6001600288020188555050505b505050505050565b6118ec806200041f6000396000f3fe60806040526004361061007b5760003560e01c8063efb7f91c1161004e578063efb7f91c146100fa578063f2fefa4c14610116578063f6856b6c14610132578063f851a4401461014e5761007b565b80632f088b6414610080578063352ed1da1461009c57806357a0169f146100b3578063b374657c146100cf575b600080fd5b61009a60048036038101906100959190610bad565b610179565b005b3480156100a857600080fd5b506100b16102f1565b005b6100cd60048036038101906100c89190610d5a565b61042b565b005b3480156100db57600080fd5b506100e4610547565b6040516100f19190610e35565b60405180910390f35b610114600480360381019061010f9190610e57565b6105d5565b005b610130600480360381019061012b9190610e97565b6105d9565b005b61014c60048036038101906101479190610ec4565b6108f7565b005b34801561015a57600080fd5b50610163610ae1565b6040516101709190610f56565b60405180910390f35b600082116101bc576040517f08c379a00000000000000000000000000000000000000000000000000000000081526004016101b390610fce565b60405180910390fd5b8373ffffffffffffffffffffffffffffffffffffffff166323b872dd3330866040518463ffffffff1660e01b81526004016101f993929190610ffd565b600060405180830381600087803b15801561021357600080fd5b505af1158015610227573d6000803e3d6000fd5b505050508373ffffffffffffffffffffffffffffffffffffffff166323b872dd3033866040518463ffffffff1660e01b815260040161026893929190610ffd565b600060405180830381600087803b15801561028257600080fd5b505af1158015610296573d6000803e3d6000fd5b50505050828473ffffffffffffffffffffffffffffffffffffffff167f4923af71367dfe61e14945044113c98a082fcbd796c4b7883c510400367c770133846040516102e3929190611034565b60405180910390a350505050565b60008054906101000a900473ffffffffffffffffffffffffffffffffffffffff1673ffffffffffffffffffffffffffffffffffffffff163373ffffffffffffffffffffffffffffffffffffffff161461037f576040517f08c379a0000000000000000000000000000000000000000000000000000000008152600401610376906110cf565b60405180910390fd5b600047116103c2576040517f08c379a00000000000000000000000000000000000000000000000000000000081526004016103b99061113b565b60405180910390fd5b60008054906101000a900473ffffffffffffffffffffffffffffffffffffffff1673ffffffffffffffffffffffffffffffffffffffff166108fc479081150290604051600060405180830381858888f19350505050158015610428573d6000803e3d6000fd5b50565b600060036000838152602001908152602001600020905060018160040160003373ffffffffffffffffffffffffffffffffffffffff1673ffffffffffffffffffffffffffffffffffffffff16815260200190815260200160002060006101000a81548160ff0219169083151502179055503373ffffffffffffffffffffffffffffffffffffffff166108fc349081150290604051600060405180830381858888f193505050501580156104e2573d6000803e3d6000fd5b507fd30ac2a3273f64a9928926cf51b065da99be049c09e7fbf834067e5d33431d56828260000160009054906101000a900473ffffffffffffffffffffffffffffffffffffffff168560405161053a9392919061119f565b60405180910390a1505050565b600480546105549061120c565b80601f01602080910402602001604051908101604052809291908181526020018280546105809061120c565b80156105cd5780601f106105a2576101008083540402835291602001916105cd565b820191906000526020600020905b8154815290600101906020018083116105b057829003601f168201915b505050505081565b5050565b80600073ffffffffffffffffffffffffffffffffffffffff166003600083815260200190815260200160002060000160009054906101000a900473ffffffffffffffffffffffffffffffffffffffff1673ffffffffffffffffffffffffffffffffffffffff160361067f576040517f08c379a000000000000000000000000000000000000000000000000000000000815260040161067690611289565b60405180910390fd5b600360008281526020019081526020016000206006015442106106d7576040517f08c379a00000000000000000000000000000000000000000000000000000000081526004016106ce906112f5565b60405180910390fd5b6003600083815260200190815260200160002060050154341015610730576040517f08c379a000000000000000000000000000000000000000000000000000000000815260040161072790611361565b60405180910390fd5b6000600360008481526020019081526020016000209050806003015481600201541115610792576040517f08c379a0000000000000000000000000000000000000000000000000000000008152600401610789906113f3565b60405180910390fd5b60006003600085815260200190815260200160002060040160003373ffffffffffffffffffffffffffffffffffffffff1673ffffffffffffffffffffffffffffffffffffffff16815260200190815260200160002060006101000a81548160ff02191690831515021790555060036000848152602001908152602001600020600201600081548092919061082590611442565b919050555060008054906101000a900473ffffffffffffffffffffffffffffffffffffffff1673ffffffffffffffffffffffffffffffffffffffff166108fc349081150290604051600060405180830381858888f19350505050158015610890573d6000803e3d6000fd5b507f35ae04b457020007f53e8da2c8b75e0d2f2d5b56bc001c2898c7e01fee15a8f1838260000160009054906101000a900473ffffffffffffffffffffffffffffffffffffffff1633346040516108ea949392919061148a565b60405180910390a1505050565b60015434101561093c576040517f08c379a000000000000000000000000000000000000000000000000000000000815260040161093390611541565b60405180910390fd5b60006003600060025481526020019081526020016000209050338160000160006101000a81548173ffffffffffffffffffffffffffffffffffffffff021916908373ffffffffffffffffffffffffffffffffffffffff1602179055508381600301819055506000816002018190555082816005018190555081426109c09190611561565b8160060181905550848160010190816109d99190611741565b50600260008154809291906109ed90611442565b919050555060008054906101000a900473ffffffffffffffffffffffffffffffffffffffff1673ffffffffffffffffffffffffffffffffffffffff166108fc349081150290604051600060405180830381858888f19350505050158015610a58573d6000803e3d6000fd5b507f426a92c1c8a0f788c4f454c73c62d18939ceb5b6b208ada71f9cf467596298946001600254610a899190611813565b8260000160009054906101000a900473ffffffffffffffffffffffffffffffffffffffff168360020154348560030154888760060154604051610ad29796959493929190611847565b60405180910390a15050505050565b60008054906101000a900473ffffffffffffffffffffffffffffffffffffffff1681565b6000604051905090565b600080fd5b600080fd5b600073ffffffffffffffffffffffffffffffffffffffff82169050919050565b6000610b4482610b19565b9050919050565b610b5481610b39565b8114610b5f57600080fd5b50565b600081359050610b7181610b4b565b92915050565b6000819050919050565b610b8a81610b77565b8114610b9557600080fd5b50565b600081359050610ba781610b81565b92915050565b60008060008060808587031215610bc757610bc6610b0f565b5b6000610bd587828801610b62565b9450506020610be687828801610b98565b9350506040610bf787828801610b98565b9250506060610c0887828801610b62565b91505092959194509250565b600080fd5b600080fd5b6000601f19601f8301169050919050565b7f4e487b7100000000000000000000000000000000000000000000000000000000600052604160045260246000fd5b610c6782610c1e565b810181811067ffffffffffffffff82111715610c8657610c85610c2f565b5b80604052505050565b6000610c99610b05565b9050610ca58282610c5e565b919050565b600067ffffffffffffffff821115610cc557610cc4610c2f565b5b610cce82610c1e565b9050602081019050919050565b82818337600083830152505050565b6000610cfd610cf884610caa565b610c8f565b905082815260208101848484011115610d1957610d18610c19565b5b610d24848285610cdb565b509392505050565b600082601f830112610d4157610d40610c14565b5b8135610d51848260208601610cea565b91505092915050565b60008060408385031215610d7157610d70610b0f565b5b600083013567ffffffffffffffff811115610d8f57610d8e610b14565b5b610d9b85828601610d2c565b9250506020610dac85828601610b98565b9150509250929050565b600081519050919050565b600082825260208201905092915050565b60005b83811015610df0578082015181840152602081019050610dd5565b60008484015250505050565b6000610e0782610db6565b610e118185610dc1565b9350610e21818560208601610dd2565b610e2a81610c1e565b840191505092915050565b60006020820190508181036000830152610e4f8184610dfc565b905092915050565b60008060408385031215610e6e57610e6d610b0f565b5b6000610e7c85828601610b98565b9250506020610e8d85828601610b62565b9150509250929050565b600060208284031215610ead57610eac610b0f565b5b6000610ebb84828501610b98565b91505092915050565b60008060008060808587031215610ede57610edd610b0f565b5b600085013567ffffffffffffffff811115610efc57610efb610b14565b5b610f0887828801610d2c565b9450506020610f1987828801610b98565b9350506040610f2a87828801610b98565b9250506060610f3b87828801610b98565b91505092959194509250565b610f5081610b39565b82525050565b6000602082019050610f6b6000830184610f47565b92915050565b600082825260208201905092915050565b7f5072696365206d757374206265206174206c6561737420312077656900000000600082015250565b6000610fb8601c83610f71565b9150610fc382610f82565b602082019050919050565b60006020820190508181036000830152610fe781610fab565b9050919050565b610ff781610b77565b82525050565b60006060820190506110126000830186610f47565b61101f6020830185610f47565b61102c6040830184610fee565b949350505050565b60006040820190506110496000830185610f47565b6110566020830184610f47565b9392505050565b7f7769746864726177696e67206861636b6174686f6e20666565732063616e206f60008201527f6e6c7920626520646f6e652062792061646d696e000000000000000000000000602082015250565b60006110b9603483610f71565b91506110c48261105d565b604082019050919050565b600060208201905081810360008301526110e8816110ac565b9050919050565b7f4e6f2062616c616e636520746f207472616e7366657200000000000000000000600082015250565b6000611125601683610f71565b9150611130826110ef565b602082019050919050565b6000602082019050818103600083015261115481611118565b9050919050565b600081519050919050565b60006111718261115b565b61117b8185610f71565b935061118b818560208601610dd2565b61119481610c1e565b840191505092915050565b60006060820190506111b46000830186610fee565b6111c16020830185610f47565b81810360408301526111d38184611166565b9050949350505050565b7f4e487b7100000000000000000000000000000000000000000000000000000000600052602260045260246000fd5b6000600282049050600182168061122457607f821691505b602082108103611237576112366111dd565b5b50919050565b7f4861636b6174686f6e20646f6573206e6f742065786973740000000000000000600082015250565b6000611273601883610f71565b915061127e8261123d565b602082019050919050565b600060208201905081810360008301526112a281611266565b9050919050565b7f4861636b6174686f6e20697320616c7265616479206f76657200000000000000600082015250565b60006112df601983610f71565b91506112ea826112a9565b602082019050919050565b6000602082019050818103600083015261130e816112d2565b9050919050565b7f696e73756666696369656e74207374616b6520616d6f756e7400000000000000600082015250565b600061134b601983610f71565b915061135682611315565b602082019050919050565b6000602082019050818103600083015261137a8161133e565b9050919050565b7f7061727469636970616e74206c696d697420726561636865642c2063616e6e6f60008201527f7420726567697374657221210000000000000000000000000000000000000000602082015250565b60006113dd602c83610f71565b91506113e882611381565b604082019050919050565b6000602082019050818103600083015261140c816113d0565b9050919050565b7f4e487b7100000000000000000000000000000000000000000000000000000000600052601160045260246000fd5b600061144d82610b77565b91507fffffffffffffffffffffffffffffffffffffffffffffffffffffffffffffffff820361147f5761147e611413565b5b600182019050919050565b600060808201905061149f6000830187610fee565b6114ac6020830186610f47565b6114b96040830185610f47565b6114c66060830184610fee565b95945050505050565b7f496e73756666696369656e7420616d6f756e7420746f2063726561746520686160008201527f636b6174686f6e00000000000000000000000000000000000000000000000000602082015250565b600061152b602783610f71565b9150611536826114cf565b604082019050919050565b6000602082019050818103600083015261155a8161151e565b9050919050565b600061156c82610b77565b915061157783610b77565b925082820190508082111561158f5761158e611413565b5b92915050565b60008190508160005260206000209050919050565b60006020601f8301049050919050565b600082821b905092915050565b6000600883026115f77fffffffffffffffffffffffffffffffffffffffffffffffffffffffffffffffff826115ba565b61160186836115ba565b95508019841693508086168417925050509392505050565b6000819050919050565b600061163e61163961163484610b77565b611619565b610b77565b9050919050565b6000819050919050565b61165883611623565b61166c61166482611645565b8484546115c7565b825550505050565b600090565b611681611674565b61168c81848461164f565b505050565b5b818110156116b0576116a5600082611679565b600181019050611692565b5050565b601f8211156116f5576116c681611595565b6116cf846115aa565b810160208510156116de578190505b6116f26116ea856115aa565b830182611691565b50505b505050565b600082821c905092915050565b6000611718600019846008026116fa565b1980831691505092915050565b60006117318383611707565b9150826002028217905092915050565b61174a8261115b565b67ffffffffffffffff81111561176357611762610c2f565b5b61176d825461120c565b6117788282856116b4565b600060209050601f8311600181146117ab5760008415611799578287015190505b6117a38582611725565b86555061180b565b601f1984166117b986611595565b60005b828110156117e1578489015182556001820191506020850194506020810190506117bc565b868310156117fe57848901516117fa601f891682611707565b8355505b6001600288020188555050505b505050505050565b600061181e82610b77565b915061182983610b77565b925082820390508181111561184157611840611413565b5b92915050565b600060e08201905061185c600083018a610fee565b6118696020830189610f47565b6118766040830188610fee565b6118836060830187610fee565b6118906080830186610fee565b61189d60a0830185610fee565b6118aa60c0830184610fee565b9897505050505050505056fea264697066735822122009a104cce3075468580a48ff20a637eda45689e627ea64eac9c0309916c3f6a064736f6c63430008140033",
  "linkReferences": {},
  "deployedLinkReferences": {}
}